{
  "_format": "hh-sol-artifact-1",
  "contractName": "MyTeamArt",
  "sourceName": "contracts/MyTeamArt.sol",
  "abi": [
    {
      "inputs": [
        {
          "internalType": "contract IERC20",
          "name": "_currency",
          "type": "address"
        },
        {
          "internalType": "uint256",
          "name": "_feePercent",
          "type": "uint256"
        }
      ],
      "stateMutability": "nonpayable",
      "type": "constructor"
    },
    {
      "anonymous": false,
      "inputs": [
        {
          "indexed": true,
          "internalType": "uint256",
          "name": "itemId",
          "type": "uint256"
        },
        {
          "indexed": true,
          "internalType": "address",
          "name": "nftContract",
          "type": "address"
        },
        {
          "indexed": true,
          "internalType": "uint256",
          "name": "tokenId",
          "type": "uint256"
        },
        {
          "indexed": false,
          "internalType": "address",
          "name": "creator",
          "type": "address"
        },
        {
          "indexed": false,
          "internalType": "address",
          "name": "owner",
          "type": "address"
        },
        {
          "indexed": false,
          "internalType": "uint256",
          "name": "price",
          "type": "uint256"
        },
        {
          "indexed": false,
          "internalType": "bool",
          "name": "isOnSale",
          "type": "bool"
        }
      ],
      "name": "MarketItemCreated",
      "type": "event"
    },
    {
      "anonymous": false,
      "inputs": [
        {
          "indexed": true,
          "internalType": "uint256",
          "name": "itemId",
          "type": "uint256"
        },
        {
          "indexed": true,
          "internalType": "address",
          "name": "nftContract",
          "type": "address"
        },
        {
          "indexed": true,
          "internalType": "uint256",
          "name": "tokenId",
          "type": "uint256"
        },
        {
          "indexed": false,
          "internalType": "address",
          "name": "creator",
          "type": "address"
        },
        {
          "indexed": false,
          "internalType": "address",
          "name": "owner",
          "type": "address"
        },
        {
          "indexed": false,
          "internalType": "uint256",
          "name": "price",
          "type": "uint256"
        },
        {
          "indexed": false,
          "internalType": "bool",
          "name": "isOnSale",
          "type": "bool"
        }
      ],
      "name": "MarketItemListed",
      "type": "event"
    },
    {
      "anonymous": false,
      "inputs": [
        {
          "indexed": true,
          "internalType": "uint256",
          "name": "itemId",
          "type": "uint256"
        },
        {
          "indexed": true,
          "internalType": "address",
          "name": "nftContract",
          "type": "address"
        },
        {
          "indexed": true,
          "internalType": "uint256",
          "name": "tokenId",
          "type": "uint256"
        },
        {
          "indexed": false,
          "internalType": "address",
          "name": "owner",
          "type": "address"
        },
        {
          "indexed": false,
          "internalType": "uint256",
          "name": "price",
          "type": "uint256"
        },
        {
          "indexed": false,
          "internalType": "bool",
          "name": "isOnSale",
          "type": "bool"
        }
      ],
      "name": "MarketItemSetPrice",
      "type": "event"
    },
    {
      "anonymous": false,
      "inputs": [
        {
          "indexed": true,
          "internalType": "uint256",
          "name": "itemId",
          "type": "uint256"
        },
        {
          "indexed": true,
          "internalType": "address",
          "name": "nftContract",
          "type": "address"
        },
        {
          "indexed": true,
          "internalType": "uint256",
          "name": "tokenId",
          "type": "uint256"
        },
        {
          "indexed": false,
          "internalType": "address",
          "name": "creator",
          "type": "address"
        },
        {
          "indexed": false,
          "internalType": "address",
          "name": "owner",
          "type": "address"
        },
        {
          "indexed": false,
          "internalType": "uint256",
          "name": "price",
          "type": "uint256"
        },
        {
          "indexed": false,
          "internalType": "bool",
          "name": "isOnSale",
          "type": "bool"
        }
      ],
      "name": "MarketItemSold",
      "type": "event"
    },
    {
      "anonymous": false,
      "inputs": [
        {
          "indexed": true,
          "internalType": "uint256",
          "name": "itemId",
          "type": "uint256"
        },
        {
          "indexed": true,
          "internalType": "address",
          "name": "nftContract",
          "type": "address"
        },
        {
          "indexed": true,
          "internalType": "uint256",
          "name": "tokenId",
          "type": "uint256"
        },
        {
          "indexed": false,
          "internalType": "address",
          "name": "creator",
          "type": "address"
        },
        {
          "indexed": false,
          "internalType": "address",
          "name": "owner",
          "type": "address"
        },
        {
          "indexed": false,
          "internalType": "uint256",
          "name": "price",
          "type": "uint256"
        },
        {
          "indexed": false,
          "internalType": "bool",
          "name": "isOnSale",
          "type": "bool"
        }
      ],
      "name": "MarketItemUnlisted",
      "type": "event"
    },
    {
      "anonymous": false,
      "inputs": [
        {
          "indexed": false,
          "internalType": "address",
          "name": "candidateOwner",
          "type": "address"
        }
      ],
      "name": "NewCandidateOwner",
      "type": "event"
    },
    {
      "anonymous": false,
      "inputs": [
        {
          "indexed": true,
          "internalType": "address",
          "name": "previousOwner",
          "type": "address"
        },
        {
          "indexed": true,
          "internalType": "address",
          "name": "newOwner",
          "type": "address"
        }
      ],
      "name": "OwnershipTransferred",
      "type": "event"
    },
    {
      "anonymous": false,
      "inputs": [
        {
          "indexed": false,
          "internalType": "uint256",
          "name": "feePercent",
          "type": "uint256"
        }
      ],
      "name": "SetFeePercent",
      "type": "event"
    },
    {
      "inputs": [
        {
          "internalType": "address",
          "name": "nftContract",
          "type": "address"
        },
        {
          "internalType": "uint256",
          "name": "itemId",
          "type": "uint256"
        }
      ],
      "name": "buyMarketItem",
      "outputs": [],
      "stateMutability": "nonpayable",
      "type": "function"
    },
    {
      "inputs": [
        {
          "internalType": "uint256",
          "name": "price",
          "type": "uint256"
        }
      ],
      "name": "calculateFee",
      "outputs": [
        {
          "internalType": "uint256",
          "name": "_fee",
          "type": "uint256"
        }
      ],
      "stateMutability": "view",
      "type": "function"
    },
    {
      "inputs": [],
      "name": "claimOwnership",
      "outputs": [],
      "stateMutability": "nonpayable",
      "type": "function"
    },
    {
      "inputs": [
        {
          "internalType": "address",
          "name": "nftContract",
          "type": "address"
        },
        {
          "internalType": "uint256",
          "name": "tokenId",
          "type": "uint256"
        },
        {
          "internalType": "uint256",
          "name": "price",
          "type": "uint256"
        }
      ],
      "name": "createMarketItem",
      "outputs": [
        {
          "internalType": "uint256",
          "name": "",
          "type": "uint256"
        }
      ],
      "stateMutability": "nonpayable",
      "type": "function"
    },
    {
      "inputs": [
        {
          "internalType": "uint256",
          "name": "page",
          "type": "uint256"
        },
        {
          "internalType": "uint256",
          "name": "limit",
          "type": "uint256"
        }
      ],
      "name": "fetchMarketItems",
      "outputs": [
        {
          "components": [
            {
              "internalType": "uint256",
              "name": "itemId",
              "type": "uint256"
            },
            {
              "internalType": "address",
              "name": "nftContract",
              "type": "address"
            },
            {
              "internalType": "uint256",
              "name": "tokenId",
              "type": "uint256"
            },
            {
              "internalType": "address",
              "name": "creator",
              "type": "address"
            },
            {
              "internalType": "address",
              "name": "owner",
              "type": "address"
            },
            {
              "internalType": "uint256",
              "name": "price",
              "type": "uint256"
            },
            {
              "internalType": "bool",
              "name": "isOnSale",
              "type": "bool"
            }
          ],
          "internalType": "struct MyTeamArt.MarketItem[]",
          "name": "",
          "type": "tuple[]"
        }
      ],
      "stateMutability": "view",
      "type": "function"
    },
    {
      "inputs": [
        {
          "internalType": "address",
          "name": "user",
          "type": "address"
        },
        {
          "internalType": "uint256",
          "name": "page",
          "type": "uint256"
        },
        {
          "internalType": "uint256",
          "name": "limit",
          "type": "uint256"
        }
      ],
      "name": "fetchMyCreatedItems",
      "outputs": [
        {
          "components": [
            {
              "internalType": "uint256",
              "name": "itemId",
              "type": "uint256"
            },
            {
              "internalType": "address",
              "name": "nftContract",
              "type": "address"
            },
            {
              "internalType": "uint256",
              "name": "tokenId",
              "type": "uint256"
            },
            {
              "internalType": "address",
              "name": "creator",
              "type": "address"
            },
            {
              "internalType": "address",
              "name": "owner",
              "type": "address"
            },
            {
              "internalType": "uint256",
              "name": "price",
              "type": "uint256"
            },
            {
              "internalType": "bool",
              "name": "isOnSale",
              "type": "bool"
            }
          ],
          "internalType": "struct MyTeamArt.MarketItem[]",
          "name": "",
          "type": "tuple[]"
        }
      ],
      "stateMutability": "view",
      "type": "function"
    },
    {
      "inputs": [
        {
          "internalType": "address",
          "name": "user",
          "type": "address"
        },
        {
          "internalType": "uint256",
          "name": "page",
          "type": "uint256"
        },
        {
          "internalType": "uint256",
          "name": "limit",
          "type": "uint256"
        }
      ],
      "name": "fetchMyItemsOnSale",
      "outputs": [
        {
          "components": [
            {
              "internalType": "uint256",
              "name": "itemId",
              "type": "uint256"
            },
            {
              "internalType": "address",
              "name": "nftContract",
              "type": "address"
            },
            {
              "internalType": "uint256",
              "name": "tokenId",
              "type": "uint256"
            },
            {
              "internalType": "address",
              "name": "creator",
              "type": "address"
            },
            {
              "internalType": "address",
              "name": "owner",
              "type": "address"
            },
            {
              "internalType": "uint256",
              "name": "price",
              "type": "uint256"
            },
            {
              "internalType": "bool",
              "name": "isOnSale",
              "type": "bool"
            }
          ],
          "internalType": "struct MyTeamArt.MarketItem[]",
          "name": "",
          "type": "tuple[]"
        }
      ],
      "stateMutability": "view",
      "type": "function"
    },
    {
      "inputs": [],
      "name": "getCurrency",
      "outputs": [
        {
          "internalType": "contract IERC20",
          "name": "",
          "type": "address"
        }
      ],
      "stateMutability": "view",
      "type": "function"
    },
    {
      "inputs": [],
      "name": "getFee",
      "outputs": [
        {
          "internalType": "uint256",
          "name": "",
          "type": "uint256"
        }
      ],
      "stateMutability": "view",
      "type": "function"
    },
    {
      "inputs": [
        {
          "internalType": "uint256",
          "name": "itemId",
          "type": "uint256"
        }
      ],
      "name": "getMarketItem",
      "outputs": [
        {
          "components": [
            {
              "internalType": "uint256",
              "name": "itemId",
              "type": "uint256"
            },
            {
              "internalType": "address",
              "name": "nftContract",
              "type": "address"
            },
            {
              "internalType": "uint256",
              "name": "tokenId",
              "type": "uint256"
            },
            {
              "internalType": "address",
              "name": "creator",
              "type": "address"
            },
            {
              "internalType": "address",
              "name": "owner",
              "type": "address"
            },
            {
              "internalType": "uint256",
              "name": "price",
              "type": "uint256"
            },
            {
              "internalType": "bool",
              "name": "isOnSale",
              "type": "bool"
            }
          ],
          "internalType": "struct MyTeamArt.MarketItem",
          "name": "",
          "type": "tuple"
        }
      ],
      "stateMutability": "view",
      "type": "function"
    },
    {
      "inputs": [
        {
          "internalType": "uint256",
          "name": "itemId",
          "type": "uint256"
        },
        {
          "internalType": "uint256",
          "name": "price",
          "type": "uint256"
        }
      ],
      "name": "listMarketItem",
      "outputs": [],
      "stateMutability": "nonpayable",
      "type": "function"
    },
    {
      "inputs": [],
      "name": "owner",
      "outputs": [
        {
          "internalType": "address",
          "name": "",
          "type": "address"
        }
      ],
      "stateMutability": "view",
      "type": "function"
    },
    {
      "inputs": [],
      "name": "renounceOwnership",
      "outputs": [],
      "stateMutability": "view",
      "type": "function"
    },
    {
      "inputs": [
        {
          "internalType": "contract IERC20",
          "name": "_currency",
          "type": "address"
        }
      ],
      "name": "setCurrency",
      "outputs": [],
      "stateMutability": "nonpayable",
      "type": "function"
    },
    {
      "inputs": [
        {
          "internalType": "uint256",
          "name": "_feePercent",
          "type": "uint256"
        }
      ],
      "name": "setFeePercent",
      "outputs": [],
      "stateMutability": "nonpayable",
      "type": "function"
    },
    {
      "inputs": [
        {
          "internalType": "uint256",
          "name": "itemId",
          "type": "uint256"
        },
        {
          "internalType": "uint256",
          "name": "price",
          "type": "uint256"
        }
      ],
      "name": "setMarketItemPrice",
      "outputs": [],
      "stateMutability": "nonpayable",
      "type": "function"
    },
    {
      "inputs": [
        {
          "internalType": "address",
          "name": "_candidateOwner",
          "type": "address"
        }
      ],
      "name": "transferOwnership",
      "outputs": [],
      "stateMutability": "nonpayable",
      "type": "function"
    },
    {
      "inputs": [
        {
          "internalType": "uint256",
          "name": "itemId",
          "type": "uint256"
        }
      ],
      "name": "unlistMarketItem",
      "outputs": [],
      "stateMutability": "nonpayable",
      "type": "function"
    }
  ],
  "bytecode": "0x60806040523480156200001157600080fd5b50604051620024f2380380620024f283398101604081905262000034916200016c565b6200003f336200011c565b600180556001600160a01b0382166200009f5760405162461bcd60e51b815260206004820152601860248201527f41646472657373206d757374206e6f74206265207a65726f000000000000000060448201526064015b60405180910390fd5b6064811115620000f25760405162461bcd60e51b815260206004820152601d60248201527f466565206d757374206e6f74206265206d6f7265207468616e20313030000000604482015260640162000096565b600680546001600160a01b0319166001600160a01b039390931692909217909155600455620001a6565b600080546001600160a01b038381166001600160a01b0319831681178455604051919092169283917f8be0079c531659141344cd1fd0a4f28419497f9722a3daafe3b4186f6b6457e09190a35050565b600080604083850312156200017f578182fd5b82516001600160a01b038116811462000196578283fd5b6020939093015192949293505050565b61233c80620001b66000396000f3fe608060405234801561001057600080fd5b50600436106101165760003560e01c80637ce3489b116100a257806399a5d7471161007157806399a5d7471461022e578063bed1145414610241578063c7be7a4914610254578063ced72f8714610274578063f2fde38b1461027c57600080fd5b80637ce3489b146101e45780638da5cb5b146101f75780639283106414610208578063986f8ba41461021b57600080fd5b806350cd6a12116100e957806350cd6a121461015e57806358eb2df5146101715780636945c1fd146101975780637063b64e146101bc578063715018a6146101dc57600080fd5b80632796390c1461011b5780632f84c3911461013057806344e7877a146101435780634e71e0c814610156575b600080fd5b61012e610129366004611f1c565b61028f565b005b61012e61013e366004611e35565b6104f9565b61012e610151366004611eec565b6105f9565b61012e6107d1565b61012e61016c366004611f1c565b610890565b61018461017f366004611e98565b610a20565b6040519081526020015b60405180910390f35b6006546001600160a01b03165b6040516001600160a01b03909116815260200161018e565b6101cf6101ca366004611f1c565b610cea565b60405161018e9190611ffc565b61012e610f72565b61012e6101f2366004611eec565b610fe4565b6000546001600160a01b03166101a4565b6101cf610216366004611e98565b61109b565b61012e610229366004611e6d565b611368565b61018461023c366004611eec565b6116ea565b6101cf61024f366004611e98565b611705565b610267610262366004611eec565b611980565b60405161018e9190612215565b600454610184565b61012e61028a366004611e35565b6119fe565b8161029960025490565b81111580156102b5575060008181526007602052604090205481145b6102da5760405162461bcd60e51b81526004016102d19061217a565b60405180910390fd5b600260015414156102fd5760405162461bcd60e51b81526004016102d1906121de565b60026001556000838152600760205260409020600401546001600160a01b0316331461033b5760405162461bcd60e51b81526004016102d19061210e565b60008381526007602052604090206006015460ff161515600114156103a25760405162461bcd60e51b815260206004820152601d60248201527f54686973206974656d20697320616c7265616479206f6e2073616c652100000060448201526064016102d1565b600082116103ee5760405162461bcd60e51b815260206004820152601960248201527843616e6e6f742073656c6c206974656d20666f72206672656560381b60448201526064016102d1565b60008381526007602052604090819020600181015460029091015491516323b872dd60e01b81526001600160a01b03909116916323b872dd91610438913391309190600401611faf565b600060405180830381600087803b15801561045257600080fd5b505af1158015610466573d6000803e3d6000fd5b505050600084815260076020526040908190206005810185905560068101805460ff1916600190811790915560028201548183015460039093015493519094506001600160a01b039283169388937f6d3626e01c4820245e935759f5d3b3ac2be1dda5a74608c05799982b3676a9b5936104e893929091169133918a91611fd3565b60405180910390a450506001805550565b6000546001600160a01b031633146105235760405162461bcd60e51b81526004016102d190612145565b6001600160a01b0381166105795760405162461bcd60e51b815260206004820152601860248201527f41646472657373206d757374206e6f74206265207a65726f000000000000000060448201526064016102d1565b6006546001600160a01b03828116911614156105d75760405162461bcd60e51b815260206004820152601960248201527f41646472657373206d75737420626520646966666572656e740000000000000060448201526064016102d1565b600680546001600160a01b0319166001600160a01b0392909216919091179055565b8061060360025490565b811115801561061f575060008181526007602052604090205481145b61063b5760405162461bcd60e51b81526004016102d19061217a565b6002600154141561065e5760405162461bcd60e51b81526004016102d1906121de565b6002600190815560008381526007602052604090206006015460ff161515146106995760405162461bcd60e51b81526004016102d1906120b4565b6000828152600760205260409020600401546001600160a01b031633146106d25760405162461bcd60e51b81526004016102d19061210e565b60008281526007602052604090819020600181015460029091015491516323b872dd60e01b81526001600160a01b03909116916323b872dd9161071c913091339190600401611faf565b600060405180830381600087803b15801561073657600080fd5b505af115801561074a573d6000803e3d6000fd5b50505060008381526007602052604080822060068101805460ff1916905560028101546001820154600383015460059093015493519195506001600160a01b039081169488947f9c97b7f43efcb64f9b1a01b0671791083d6766322a1be7c14af37f2e585a9f58946107c194931692339290611fd3565b60405180910390a4505060018055565b6005546001600160a01b0316331461082b5760405162461bcd60e51b815260206004820152601a60248201527f4f776e61626c653a204e6f74207468652063616e64696461746500000000000060448201526064016102d1565b6000546005546001600160a01b03918216916108479116611acc565b600580546001600160a01b03191690556040516000906001600160a01b038316907f8be0079c531659141344cd1fd0a4f28419497f9722a3daafe3b4186f6b6457e0908390a350565b8161089a60025490565b81111580156108b6575060008181526007602052604090205481145b6108d25760405162461bcd60e51b81526004016102d19061217a565b600260015414156108f55760405162461bcd60e51b81526004016102d1906121de565b60026001558161093f5760405162461bcd60e51b81526020600482015260156024820152744e6f206974656d20666f722066726565206865726560581b60448201526064016102d1565b60008381526007602052604090206006015460ff1615156001146109755760405162461bcd60e51b81526004016102d1906120b4565b6000838152600760205260409020600401546001600160a01b031633146109ae5760405162461bcd60e51b81526004016102d19061210e565b60008381526007602090815260409182902060058101859055600281015460018083015460049093015485516001600160a01b0391821681529485018890529484015292169085907f6df2c46ad0e6d8e6d0919f25288e01917b7cc195524202914d0b4bcec392c010906060016104e8565b600060026001541415610a455760405162461bcd60e51b81526004016102d1906121de565b60026001556040516331a9108f60e11b81526004810184905233906001600160a01b03861690636352211e9060240160206040518083038186803b158015610a8c57600080fd5b505afa158015610aa0573d6000803e3d6000fd5b505050506040513d601f19601f82011682018060405250810190610ac49190611e51565b6001600160a01b031614610b1a5760405162461bcd60e51b815260206004820152601c60248201527f596f7520617265206e6f74206f776e6572206f6620746865204e46540000000060448201526064016102d1565b60008211610b665760405162461bcd60e51b815260206004820152601960248201527843616e6e6f742073656c6c206974656d20666f72206672656560381b60448201526064016102d1565b610b74600280546001019055565b6000610b7f60025490565b6040805160e0810182528281526001600160a01b0388811660208084018281528486018b815233606087018181526080880182815260a089018e8152600160c08b0181815260008e81526007909952978c90209a518b559551958a0180546001600160a01b0319908116978b16979097179055935160028a0155905160038901805486169189169190911790555160048089018054909516919097161790925551600586015590516006909401805460ff19169415159490941790935592516323b872dd60e01b815293945091926323b872dd92610c62929130918a9101611faf565b600060405180830381600087803b158015610c7c57600080fd5b505af1158015610c90573d6000803e3d6000fd5b5050505083856001600160a01b0316827f045dfa01dcba2b36aba1d3dc4a874f4b0c5d2fbeb8d2c4b34a7d88c8d8f929d13333886001604051610cd69493929190611fd3565b60405180910390a460018055949350505050565b606060008311610d0c5760405162461bcd60e51b81526004016102d1906121a7565b60008211610d2c5760405162461bcd60e51b81526004016102d19061207d565b6064821115610d4d5760405162461bcd60e51b81526004016102d1906120e3565b600080610d6f6001610d6986610d63818a611b1c565b90611b28565b90611b34565b90505b610d7c8486611b1c565b8111610dda5760008181526007602052604090205415801590610db5575060008181526007602052604090206006015460ff1615156001145b15610dc857610dc5826001611b34565b91505b80610dd2816122bd565b915050610d72565b5060008167ffffffffffffffff811115610e0457634e487b7160e01b600052604160045260246000fd5b604051908082528060200260200182016040528015610e3d57816020015b610e2a611df9565b815260200190600190039081610e225790505b509050600080610e566001610d6988610d63818c611b1c565b90505b610e638688611b1c565b8111610f655760008181526007602052604090205415801590610e9c575060008181526007602052604090206006015460ff1615156001145b15610f5357600081815260076020908152604091829020825160e0810184528154815260018201546001600160a01b039081169382019390935260028201549381019390935260038101548216606084015260048101549091166080830152600581015460a0830152600681015460ff16151560c08301528451909190859085908110610f3957634e487b7160e01b600052603260045260246000fd5b6020908102919091010152610f4f836001611b34565b9250505b80610f5d816122bd565b915050610e59565b5090925050505b92915050565b6000546001600160a01b03163314610f9c5760405162461bcd60e51b81526004016102d190612145565b60405162461bcd60e51b815260206004820152601e60248201527f52656e6f756e6365206f776e657273686970206e6f7420616c6c6f776564000060448201526064016102d1565b6000546001600160a01b0316331461100e5760405162461bcd60e51b81526004016102d190612145565b606481111561105f5760405162461bcd60e51b815260206004820152601d60248201527f466565206d757374206e6f74206265206d6f7265207468616e2031303000000060448201526064016102d1565b60048190556040518181527f54b9dbb1167ce9a1e141b9c71f73394e64bf53da85077b4bcdcff626ba943f58906020015b60405180910390a150565b6060600083116110bd5760405162461bcd60e51b81526004016102d1906121a7565b600082116110dd5760405162461bcd60e51b81526004016102d19061207d565b60648211156110fe5760405162461bcd60e51b81526004016102d1906120e3565b6000806111146001610d6986610d63818a611b1c565b90505b6111218486611b1c565b81116111a7576000818152600760205260409020541580159061115a575060008181526007602052604090206006015460ff1615156001145b801561118257506000818152600760205260409020600401546001600160a01b038781169116145b1561119557611192826001611b34565b91505b8061119f816122bd565b915050611117565b5060008167ffffffffffffffff8111156111d157634e487b7160e01b600052604160045260246000fd5b60405190808252806020026020018201604052801561120a57816020015b6111f7611df9565b8152602001906001900390816111ef5790505b5090506000806112236001610d6988610d63818c611b1c565b90505b6112308688611b1c565b811161135a5760008181526007602052604090205415801590611269575060008181526007602052604090206006015460ff1615156001145b801561129157506000818152600760205260409020600401546001600160a01b038981169116145b1561134857600081815260076020908152604091829020825160e0810184528154815260018201546001600160a01b039081169382019390935260028201549381019390935260038101548216606084015260048101549091166080830152600581015460a0830152600681015460ff16151560c0830152845190919085908590811061132e57634e487b7160e01b600052603260045260246000fd5b6020908102919091010152611344836001611b34565b9250505b80611352816122bd565b915050611226565b5090925050505b9392505050565b8061137260025490565b811115801561138e575060008181526007602052604090205481145b6113aa5760405162461bcd60e51b81526004016102d19061217a565b600260015414156113cd5760405162461bcd60e51b81526004016102d1906121de565b60026001556000828152600760205260409020600401546001600160a01b031633141561143c5760405162461bcd60e51b815260206004820152601b60248201527f596f752063616e6e6f742062757920796f7572206f776e204e4654000000000060448201526064016102d1565b6000828152600760205260409020600581015460069091015460ff1615156001146114795760405162461bcd60e51b81526004016102d1906120b4565b6006546040516370a0823160e01b815233600482015282916001600160a01b0316906370a082319060240160206040518083038186803b1580156114bc57600080fd5b505afa1580156114d0573d6000803e3d6000fd5b505050506040513d601f19601f820116820180604052508101906114f49190611f04565b10156115395760405162461bcd60e51b8152602060048201526014602482015273496e73756666696369656e742062616c616e636560601b60448201526064016102d1565b60008381526007602052604081206002015490611555836116ea565b6000868152600760205260409020600401549091506115979033906001600160a01b03166115838685611b28565b6006546001600160a01b0316929190611b40565b6040516323b872dd60e01b81526001600160a01b038716906323b872dd906115c790309033908790600401611faf565b600060405180830381600087803b1580156115e157600080fd5b505af11580156115f5573d6000803e3d6000fd5b505050600086815260076020526040902060040180546001600160a01b0319163390811790915561164791506116336000546001600160a01b031690565b6006546001600160a01b0316919084611b40565b6000858152600760205260409020600601805460ff1916905561166e600380546001019055565b600085815260076020526040808220600281015460018201546003830154600590930154935191946001600160a01b03918216948b947ffeb04e399f6ba62d926a65372cbb5f11e3c7a9ff05e62948769d2ee5d5335b84946116d69490911692339291611fd3565b60405180910390a450506001805550505050565b600454600090610f6c906116ff846064611b9e565b90611b1c565b6060600083116117275760405162461bcd60e51b81526004016102d1906121a7565b600082116117475760405162461bcd60e51b81526004016102d19061207d565b60648211156117685760405162461bcd60e51b81526004016102d1906120e3565b60008061177e6001610d6986610d63818a611b1c565b90505b61178b8486611b1c565b81116117ef57600081815260076020526040902054158015906117ca57506000818152600760205260409020600301546001600160a01b038781169116145b156117dd576117da826001611b34565b91505b806117e7816122bd565b915050611781565b5060008167ffffffffffffffff81111561181957634e487b7160e01b600052604160045260246000fd5b60405190808252806020026020018201604052801561185257816020015b61183f611df9565b8152602001906001900390816118375790505b50905060008061186b6001610d6988610d63818c611b1c565b90505b6118788688611b1c565b811161135a57600081815260076020526040902054158015906118b757506000818152600760205260409020600301546001600160a01b038981169116145b1561196e57600081815260076020908152604091829020825160e0810184528154815260018201546001600160a01b039081169382019390935260028201549381019390935260038101548216606084015260048101549091166080830152600581015460a0830152600681015460ff16151560c0830152845190919085908590811061195457634e487b7160e01b600052603260045260246000fd5b602090810291909101015261196a836001611b34565b9250505b80611978816122bd565b91505061186e565b611988611df9565b50600090815260076020908152604091829020825160e0810184528154815260018201546001600160a01b039081169382019390935260028201549381019390935260038101548216606084015260048101549091166080830152600581015460a08301526006015460ff16151560c082015290565b6000546001600160a01b03163314611a285760405162461bcd60e51b81526004016102d190612145565b6001600160a01b038116611a7e5760405162461bcd60e51b815260206004820152601860248201527f4f776e61626c653a204e6f207a65726f2061646472657373000000000000000060448201526064016102d1565b600580546001600160a01b0319166001600160a01b0383169081179091556040519081527f71dc4b8195b44cb125162eb5af86e3c4a4583dfeef8ac21a71c1b36ee7c91bb890602001611090565b600080546001600160a01b038381166001600160a01b0319831681178455604051919092169283917f8be0079c531659141344cd1fd0a4f28419497f9722a3daafe3b4186f6b6457e09190a35050565b6000611361828461225b565b6000611361828461227a565b60006113618284612223565b611b98846323b872dd60e01b858585604051602401611b6193929190611faf565b60408051601f198184030181529190526020810180516001600160e01b03166001600160e01b031990931692909217909152611baa565b50505050565b6000611361828461223b565b6000611bff826040518060400160405280602081526020017f5361666545524332303a206c6f772d6c6576656c2063616c6c206661696c6564815250856001600160a01b0316611c819092919063ffffffff16565b805190915015611c7c5780806020019051810190611c1d9190611ecc565b611c7c5760405162461bcd60e51b815260206004820152602a60248201527f5361666545524332303a204552433230206f7065726174696f6e20646964206e6044820152691bdd081cdd58d8d9595960b21b60648201526084016102d1565b505050565b6060611c908484600085611c98565b949350505050565b606082471015611cf95760405162461bcd60e51b815260206004820152602660248201527f416464726573733a20696e73756666696369656e742062616c616e636520666f6044820152651c8818d85b1b60d21b60648201526084016102d1565b843b611d475760405162461bcd60e51b815260206004820152601d60248201527f416464726573733a2063616c6c20746f206e6f6e2d636f6e747261637400000060448201526064016102d1565b600080866001600160a01b03168587604051611d639190611f93565b60006040518083038185875af1925050503d8060008114611da0576040519150601f19603f3d011682016040523d82523d6000602084013e611da5565b606091505b5091509150611db5828286611dc0565b979650505050505050565b60608315611dcf575081611361565b825115611ddf5782518084602001fd5b8160405162461bcd60e51b81526004016102d1919061204a565b6040805160e081018252600080825260208201819052918101829052606081018290526080810182905260a0810182905260c081019190915290565b600060208284031215611e46578081fd5b8135611361816122ee565b600060208284031215611e62578081fd5b8151611361816122ee565b60008060408385031215611e7f578081fd5b8235611e8a816122ee565b946020939093013593505050565b600080600060608486031215611eac578081fd5b8335611eb7816122ee565b95602085013595506040909401359392505050565b600060208284031215611edd578081fd5b81518015158114611361578182fd5b600060208284031215611efd578081fd5b5035919050565b600060208284031215611f15578081fd5b5051919050565b60008060408385031215611f2e578182fd5b50508035926020909101359150565b80518252602081015160018060a01b03808216602085015260408301516040850152806060840151166060850152806080840151166080850152505060a081015160a083015260c0810151151560c08301525050565b60008251611fa5818460208701612291565b9190910192915050565b6001600160a01b039384168152919092166020820152604081019190915260600190565b6001600160a01b0394851681529290931660208301526040820152901515606082015260800190565b6020808252825182820181905260009190848201906040850190845b8181101561203e5761202b838551611f3d565b9284019260e09290920191600101612018565b50909695505050505050565b6020815260008251806020840152612069816040850160208701612291565b601f01601f19169190910160400192915050565b60208082526019908201527f4c696d6974206d757374206265206d6f7265207468616e203000000000000000604082015260600190565b602080825260159082015274151a1a5cc81a5d195b481a5cc81d5b9b1a5cdd1959605a1b604082015260600190565b60208082526011908201527013585e081b1a5b5a5d081c995858da1959607a1b604082015260600190565b6020808252601e908201527f596f7520617265206e6f74206f776e6572206f662074686973206974656d0000604082015260600190565b6020808252818101527f4f776e61626c653a2063616c6c6572206973206e6f7420746865206f776e6572604082015260600190565b602080825260139082015272436f756c64206e6f742066696e64206974656d60681b604082015260600190565b60208082526018908201527f50616765206d757374206265206d6f7265207468616e20300000000000000000604082015260600190565b6020808252601f908201527f5265656e7472616e637947756172643a207265656e7472616e742063616c6c00604082015260600190565b60e08101610f6c8284611f3d565b60008219821115612236576122366122d8565b500190565b60008261225657634e487b7160e01b81526012600452602481fd5b500490565b6000816000190483118215151615612275576122756122d8565b500290565b60008282101561228c5761228c6122d8565b500390565b60005b838110156122ac578181015183820152602001612294565b83811115611b985750506000910152565b60006000198214156122d1576122d16122d8565b5060010190565b634e487b7160e01b600052601160045260246000fd5b6001600160a01b038116811461230357600080fd5b5056fea2646970667358221220627817669119f87c7339d6a52f5071b4aa4eb68fc171287f25a17e60fd78b13f64736f6c63430008040033",
  "linkReferences": {},
  "deployedLinkReferences": {}
}